:020000040800F2
:1000000060170020450100084F070008050600089A
:100010004D070008E10100089F20000800000000D3
:10002000000000000000000000000000151E000895
:10003000F703000800000000E9070008A91E0008F7
:100040005F0100085F0100085F0100085F01000810
:100050005F0100085F0100085F0100085F01000800
:100060005F0100085F0100085F0100085F010008F0
:100070005F0100085F0100085F0100085F010008E0
:100080005F0100085F0100085F0100085F010008D0
:100090005F0100085F0100085F0100085F010008C0
:1000A0005F0100085F0100085F0100085F010008B0
:1000B0005F0100085F0100085F0100085F010008A0
:1000C0005F0100085F0100085F0100085F01000890
:1000D0005F0100085F0100085F0100085F01000880
:1000E0005F0100085F0100085F0100085F01000870
:1000F0005F0100085F0100085F0100085F01000860
:100100005F010008BD0C00085F0100085F010008E6
:100110005F0100085F0100085F0100085F0100083F
:100120005F0100085F0100085F0100085F0100082F
:10013000DFF80CD000F042F8004800479534000882
:10014000601700200648804706480047FEE7FEE7A4
:10015000FEE7FEE7FEE7FEE7FEE7FEE7FEE7FEE777
:10016000AD1E000831010008D2B201E000F8012BF9
:10017000491EFBD270470022F6E710B50446084638
:10018000114602462046FFF7EFFF204610BD30B56E
:100190000EE003460A4601E05B1C521C1C781578F1
:1001A000AC4201D1002CF7D11278002A04D0401CB7
:1001B0000278002AEDD1002030BD0000064C074D2A
:1001C00006E0E06840F0010394E807009847103427
:1001D000AC42F6D3FFF7B0FF94E40208B4E402089F
:1001E000FEE7000070B5374905462A24486B10F039
:1001F000450FFBD0410702D50324042003E0C007CC
:1002000004D00124204600F0F1FC59E000F02EFD5E
:10021000A8422BD140F2FF5000F0E8FC002000F093
:1002200047FD294908424BD0002801DA1C2070BD47
:10023000410001D5092070BD810001D50A2070BDA3
:10024000C10001D50B2070BD010101D50C2070BD8E
:10025000410101D50D2070BDC10101D50E2070BD39
:10026000010201D50F2070BD410201D5102070BDE3
:10027000810201D5112070BDC10201D5122070BDCF
:10028000010301D5132070BD410301D5142070BDB9
:10029000810301D5152070BDC10301D5162070BDA5
:1002A000010401D5172070BD410401D5182070BD8F
:1002B000810401D5192070BD000701D51A2070BD39
:1002C000204670BD0080014008E0FFFD10B50B49DD
:1002D0002A24486B10F0450FFBD0410702D50324B8
:1002E000042003E0C00705D00124204600F07EFC76
:1002F000204610BD40F2FF50F8E7000000800140AA
:1003000070B50C46194906462A25486B10F0450F72
:10031000FBD0410702D50324042003E0C00705D029
:100320000124204600F062FC204670BD00F09EFCD7
:10033000B04213D140F2FF5000F058FC002000F012
:10034000B7FC10F4604F03D14FEA104020800BE05F
:10035000810401D5132070BD410401D5102070BD6A
:10036000000401D50F2070BD284670BD00800140FB
:100370000349C20002D5C1F80404704748607047C1
:10038000000002400029016802D041F0010102E0B2
:100390004FF6FE72114001607047000002460020D7
:1003A0000549D30002D5D1F8001400E009681142D4
:1003B00000D00120704700000000024070B50268C4
:1003C00047F6F0739A430D6A8B680C692B43D1E9A9
:1003D000056534432343CC692B432343D1E90954B6
:1003E0002B43234313430360CA6842600A68826058
:1003F0004968C16070BD704702494860486800287C
:10040000FCD17047000000202DE9FC5F00240E465F
:1004100068462146224606C0494F4FF0080B10207F
:10042000C7E900B04FF0400AC7E902A44FF4806862
:100430002546C7F81080384600F06AFC1020FFF708
:10044000D1FE2A2833D13F48B9468068010439607B
:10045000C7E902A5372138467960C0F810804746C1
:10046000374800F055FC3720FFF7BCFE2A281ED184
:10047000334835491430C0E9001B30218160022126
:10048000C0E903150121416100F0C8FB3321C9E92E
:100490000051C9E902A52A48C9F8107000F038FCDB
:1004A0003320FFF79FFE05462A280CD02846BDE8DA
:1004B000FC9F504600F0E0FB60B100F023FC47F8E1
:1004C0002400641C06E0DFF884804FF4001A6F46B5
:1004D00040F22A69D8F8340010EA090FE9D0082060
:1004E00000F0CAFB20B1082000F080FB0420DEE70A
:1004F000022000F0C1FB20B1022000F077FB0220B7
:10050000D5E7202000F0B8FB20B1202000F06EFBE2
:100510000620CCE74FF40074204600F0ADFB20B17C
:10052000204600F063FB0720C1E740F2FF5000F0D7
:100530005DFB009800BA7060019800BA3060B5E7C2
:100540003411002014000020FFFF0F000080014044
:10055000F0B5CB780022DC0603F00F0301D58C78D0
:1005600023430C884FF00F0C14F0FF0F4FF0010ED7
:100570001AD006680D880EFA02F42540A5420FD164
:1005800095000CFA05F726EA070703FA05F6CD7879
:100590003E43282D01D1446102E0482D00D1046181
:1005A000521C082AE6D306600A88FF2A1ED946682C
:1005B0005FF0000202F108050EFA05F40D882540EF
:1005C000A5420FD195000CFA05F726EA070703FAB2
:1005D00005F6CD783E43282D00D14461CD78482DD5
:1005E00000D10461521C082AE4D34660F0BD0246E3
:1005F000926800200A4200D0012070474161704794
:1006000001617047FEE7000070B5044640482A25A6
:10061000806801043F4801600D21416040218160F4
:100620000021C1604FF48061016100F071FB3A4923
:10063000486B10F0450FFBD0410702D5032404207E
:1006400003E0C00705D00124204600F0CFFA204681
:1006500070BD00F00BFB0D282ED140F2FF5000F0D2
:10066000C5FA002000F024FBC0F3432121702B4980
:1006700008424BD0002801DA1C2070BD410001D592
:10068000092070BD810001D50A2070BDC10001D5CF
:100690000B2070BD010101D50C2070BD410101D5B9
:1006A0000D2070BDC10101D50E2070BD010201D524
:1006B0000F2070BD410201D5102070BD810201D50F
:1006C000112070BDC10201D5122070BD010301D5FA
:1006D000132070BD410301D5142070BD810301D5E5
:1006E000152070BDC10301D5162070BD010401D5D0
:1006F000172070BD410401D5182070BD810401D5BB
:10070000192070BD000701D51A2070BD284670BDA4
:1007100014000020341100200080014008E0FFFD9B
:1007200010B50121082000F0A1F906482021018020
:100730001021C170032181700146BDE810400248BC
:10074000FFF706BF08000020000C0140FEE77047DD
:1007500008B54FF4C06000F03DF831208DF800007E
:1007600000208DF801008DF8020001208DF80300B3
:10077000684600F001F808BDF0B50F23C478017891
:100780004FF0E0220127E4B1D2F80C4D867804F452
:10079000E064C4F5E064240AC4F10405E34044784D
:1007A0001E40AC4026433301114481F800340078E8
:1007B000410900F01F0002EB81018740C1F8007180
:1007C000F0BD01F01F008740480902EB8000C0F82F
:1007D0008071F0BD0249084302490860704700007B
:1007E0000000FA050CED00E0704700002DE9F04F25
:1007F0009FB0342101A8FFF7BEFC6D481D9040F268
:10080000FF101E906BA1754801F0EEFB002002F076
:100810007AFA01F0D5FC7249002002F097FA01A99A
:100820000EA802F043FB6F4FDFF8BCA1DFF8BC91CC
:100830004FF400780DF1650B00287ED1ADE000BFCC
:100840009DF864008006F9D59DF86500002874D0F5
:100850001D980078B0B166A160481D9A01F0C4FBF4
:1008600068A11D98FFF793FC044668A11D98FFF747
:100870008EFC054667A11D98FFF789FC064667A117
:100880001D9815E05A465AA1544801F0ADFB5DA1F0
:100890005846FFF77CFC04465CA15846FFF777FCFE
:1008A00005465CA15846FFF772FC06465BA1584618
:1008B000FFF76DFC2C43344304436ED01D98007841
:1008C00010B101221D9901E001225946554802F05C
:1008D0004DFA787054A1414801F086FB0120F86080
:1008E000D9F80C004C4620F04000C9F80C0020213B
:1008F0005046FFF785FEA1463A4B45460C3342462B
:100900004D49484802F004FB7870C0B228BB00246F
:100910004FF47A70FFF770FD474EA8468021484695
:10092000FFF765FE68B10025305D01F009FC305D20
:1009300001F0A4F9641C6D1C00E035E0EDB2202D3F
:10094000F2D3787848B9F86838B14445E6D3797875
:10095000384611B9C0680028CED120215046FFF793
:100960004DFE00254FF4006680214846FFF73FFE0C
:1009700040B10024002001F0E3FB641C6D1CE4B2D4
:10098000202CF7D3B542EFD3D9F80C1041F0400139
:10099000C9F80C10234802F0D0F917A90EA802F0EC
:1009A00055FB00283FF44CAF1FB0BDE8F08F0000AE
:1009B000580000200ACEC4BCFECFB5CDB328546980
:1009C0006E692D4661744653302E30396129C6F464
:1009D000B6AFB3C9B9A621200A0000000038014013
:1009E000A80A002000000020000C01400010014077
:1009F0000D0ACEC4BCFEC3FBCAC73A0A202020257C
:100A0000730A00002E6D7033000000002E6D6964C3
:100A1000000000002E776176000000002E776D61E7
:100A200000000000D80C00200D0A20506C6179698C
:100A30006E672E2E2E000000FC0E0020044A0029B6
:100A4000516901D0014300E08143516170470000CA
:100A500000100240044A0029D16901D0014300E09E
:100A60008143D1617047000000100240044A002910
:100A7000916901D0014300E081439161704700001A
:100A80000010024010B501F011FA01210846FFF7ED
:100A9000EDFF0121BDE810407C20FFF7E7BF00001B
:100AA00010B5204A5168204B11F00C0103D00429E5
:100AB00001D0082901D0036011E051685368022475
:100AC00001F4701104EB914113F4803F02D053689C
:100AD0009B0301D5154B00E0134B5943016051684E
:100AE000134B01F0F00109095C5C0168E1404160D1
:100AF000546804F4E064240A1C5D21FA04F4846060
:100B0000546804F46054E40A1B5DD940C160526823
:100B1000074B02F44042920B1B1F9A5CB1FBF2F1AF
:100B2000016110BD0010024000127A0000093D0072
:100B3000400000202DE9FC478146002168460A4616
:100B400006C0084600F0B4F8800102D50E20BDE8CA
:100B5000FC87244C6946A06880B2FFF755FC2A2820
:100B6000F5D140263720204D370101994FF0060A74
:100B70004FF00008B9F1010F13D149032FD5A16837
:100B8000C5E90387C5E9010609042960284600F084
:100B9000BFF83720FFF726FB2A28D8D1022028608B
:100BA00012E0C9031BD5A168C5E90387C5E90106A1
:100BB000090429600C4800F0ABF83720FFF712FB5E
:100BC0002A28C4D1C5F80080C5E901A6C5E9038774
:100BD000054800F09DF80620FFF704FBB7E7252045
:100BE000B5E700001400002034110020014988639B
:100BF0007047000000800140014988637047000091
:100C0000008001400149086070470000A0003042A8
:100C100001490860704700008C05304230B5094931
:100C200002684A6242688A62CA6AD0E903548368E9
:100C300040692B43044322F0F70223431343CB6262
:100C400030BD000000800140064800210160416085
:100C50008160C16041628162C162034A8263C16393
:100C60007047000000800140FF07C0000148006994
:100C7000C0B270470080014003490246496B002022
:100C8000114200D001207047008001400349024614
:100C9000496B0020114200D00120704700800140C4
:100CA0000248006800F00300704700000080014027
:100CB00001494058704700001480014000F0E4BB37
:100CC000044A0029D16B01D0014300E08143D16384
:100CD000704700000080014070B5094B5968041D41
:100CE00047F6FF6270CC9143027D34432A43056886
:100CF000224300692A4302430A435A6070BD000040
:100D00000080014001480068704700008080014079
:100D100030B5084902688A60CA68D0E9025443685D
:100D200000692B4304436FF30A0223431343CB6050
:100D300030BD00000080014004490A6822F003022F
:100D40000A600A6802430A607047000000800140A0
:100D50000149086070470000808001400148FFF7AA
:100D60001DBB0000002000102DE9F04101461A488B
:100D70002A244068032807D018B1012801D002288E
:100D800027D1B1F5805F02D12720BDE8F0814FF473
:100D9000006800260127114D41450BD10120FFF7C6
:100DA000C9FE04462A2814D12F752E606E60C5E94D
:100DB00002680AE00020FFF7BDFE04462A2808D199
:100DC0002F752E606E60AE60EE6004482E61FFF7F6
:100DD00083FF2046D9E70000140000201C110020EA
:100DE0002DE9F0438D49DFF838924C6880F84E4089
:100DF0008968A0F84C10D9F800104FF02A0C0A0EA0
:100E000095090570C2F38305457002F003028270F4
:100E10000A0CC2700A0A02714171D9F80420110E3D
:100E20000901C180C388C2F3074101F00F0543EAFD
:100E30001111C1800572C2F30721CB094372C1F3BE
:100E400080138372C1F34013C372C1F300130373A1
:100E50004FF0000E80F80DE04B469B684FF0010804
:100E6000C3F30746C3F307274FEA13650CB1012C00
:100E70002AD18907090D01610169D2B241EA8201D3
:100E800001610269C5F3C20442EA95120261047568
:100E900005F00701417571098175C6F38201C175BD
:100EA000B107490F0176027E394642EAD71202762F
:100EB0000269057E047A521CAD1CAA4008FA04F5AA
:100EC0006A43C0E9112512E0022C10D19106890A6B
:100ED0000161016941EA0521016102693946324334
:100EE00002610269521CD204426422028264C1F38C
:100EF0008012183042708906490E8170D9B2837809
:100F000043EAD113837001F07F01C170D9F80C203E
:100F1000110ECB090371C1F341134371C1F3820375
:100F200083718907090FC171C379C2F3074143EA8D
:100F30009113C371C1F34013037280F809E001F00B
:100F400001018172C2F30721CB09C372C1F380137F
:100F50000373C1F340134373C1F300138373C1F3ED
:100F60008103C37301F003010174C2F346014174AC
:100F7000434680F812802A4A103211680C0E04751C
:100F8000C1F307442402C482C58AC1F30724254360
:100F9000C58209068161516885690C0E45EA0444E1
:100FA00084618569C1F3074445EA04248461856945
:100FB000C1F3072425438561017791680C0E4477BE
:100FC000C1F3074424060462056AC1F3072445EA15
:100FD00004440462046AC9B244EA01210162D1688E
:100FE000046A44EA1164046290F82440C1F30742A1
:100FF00044EA121480F824401207120DC284C48CF3
:10100000C1F307221443C484C1F3460180F82810B9
:1010100080F829306046BDE8F0830000140000200D
:10102000FC10002010B500F013F9FFF70DFE00F0E2
:1010300043F92A2826D100F02BF82A2822D1124879
:10104000012101750021016041608160C160016181
:10105000FFF742FE0D48FFF7C3FE2A2812D10B48C6
:10106000B0F84C00000400F0DFFB2A280AD14FF44E
:101070000060FFF779FE2A2804D1BDE81040002067
:1010800000F0E8BB10BD00001C1100205802002039
:101090002DE9F84F01202A240090FFF701FE10B936
:1010A0002520BDE8F88FDFF8E490D9F80400042883
:1010B00069D0374E00250220C6E900504FF0C00A23
:1010C000C6E902A54FF480683046C6F81080FFF7E5
:1010D0001FFEFFF7FBF804462A2854D10020FFF733
:1010E000E7FDA6F1280738600420FFF7E1FD7860EE
:1010F0000820FFF7DDFDB8600C20FFF7D9FDF86090
:10110000D9F804004F4628B1012803D0062801D0A1
:10111000022810D10320C6E90050C6E90358402038
:10112000B0601B48FFF7F4FD69460320FFF7E8F8BD
:1011300004462A2827D17868042824D0BDF8000066
:10114000B86000043060C6E902A50920C6F8108026
:1011500070600F48FFF7DCFDFFF7B8F804462A2857
:1011600011D10020FFF7A4FD094D383D286004206F
:10117000FFF79EFD68600820FFF79AFDA8600C202D
:10118000FFF796FDE86020468BE700001400002082
:101190003411002070B506468CB00D461148FFF79B
:1011A000E7F8114C00212046FFF7ECF80F48CDE995
:1011B00001060020A908CDE903018021CDE9050140
:1011C000890007918900CDE908108900CDE90A104E
:1011D00001A92046FFF7F2F801212046FFF7D2F8D7
:1011E0000CB070BD00F0001044040240808001404B
:1011F00070B506468CB00C461248FFF7B9F8124D90
:1012000000212846FFF7BEF81048CDE9010610205E
:101210000390A008049000208021CDE905018900F9
:1012200007918900CDE908108900CDE90A1001A9CC
:101230002846FFF7C3F801212846FFF7A3F80CB0B2
:1012400070BD000000F000104404024080800140A6
:1012500008B50121B020FFF709FC4FF4F850ADF8B4
:10126000000003208DF8020018208DF80300694665
:101270000E48FFF76DF90420ADF8000069460C48F0
:10128000FFF766F94FF40060ADF8000048208DF8D4
:10129000030069460748FFF75BF901218802FFF761
:1012A000CDFB01210220FFF7C9FB08BD0010014062
:1012B00000140140001C01402DE9F05F00276E483A
:1012C000B2210175076047608760C7603C463E46B3
:1012D000B846BB463D460761FFF7FEFC0320FFF71B
:1012E0002BFD0120FFF78EFC63484FF4806118301E
:1012F000056045608560C0E90351FFF709FD4FF4C3
:10130000803A4FF02A09554601E06D1E05D0802035
:10131000FFF7B2FC0028F8D00DB9032004E040F23A
:10132000FF50FFF763FC48462A287ED1DFF848913A
:101330004FF4D57109F11809C9F800100821C9F84E
:1013400004104021C9E9021B09014846C9F81010E0
:10135000FFF7DEFC494A2A25516B5046924602E0CF
:10136000DAF83410401E11F0450F02D10028F7D1F1
:1013700002E008B1480702D50325042003E048062F
:1013800003D52A254020FFF731FC2A2D05D13C4901
:1013900001204FF0804848600FE03722C9E900B2D1
:1013A0004022C9E9022B344811011830C9F8101045
:1013B000FFF7AEFC3720FEF715FF2F483722183015
:1013C000C0E900B24FF48069C0E903B940228260ED
:1013D000FFF79EFC3720FEF705FF05462A2849D176
:1013E00036E0254D37201835C5E900B0C5E903B909
:1013F00040275E462846AF60FFF78AFC3720FEF79D
:10140000F1FE2A282ED11F4948EA01002860C5E9CB
:1014100003692920C5E901072846FFF779FC2A2539
:101420005146486B10F0450F00E01BE0F9D0400733
:1014300002D50325042001E040F2FF50FFF7D6FB60
:101440002A2D17D10020FFF733FCC60F0746641C76
:101450001EB94FF6FF708442C3D34FF6FF7084422B
:1014600002D31B20BDE8F09F17F0804F02D0044844
:10147000022141602846F5E71C1100200080014050
:1014800014000020000010802DE9F041644D00247C
:10149000E868012842D1C003FFF7F8FB60B100BF44
:1014A000FFF730FC696A41F82400641C082CF7D36C
:1014B000686A203068622EE04FF48040FFF7E6FB58
:1014C00060B3E9692869411A202919D2E969411AEA
:1014D0008907E969A0EB01004FEA900600D10CE012
:1014E000761C0AE0286A0068FFF732FC286A641C50
:1014F000001D2862E869001DE861B442F2D30DE0E6
:10150000286A50F82400FFF723FC641C082CF7D34A
:10151000286A20302862E8692030E8614FF480763C
:101520003046FFF7B3FB00244CF23A3848B3E86882
:1015300090B1770308E000BFFFF7E4FB696A01C1DF
:101540006962E869001DE8613846FFF795FB18B14C
:10155000E86929698842EFD36869012802D100F05F
:1015600087F900E02A2028703046FFF745FB00216C
:101570004046FFF7A5FB0120A861EC612878BDE893
:10158000F0810220FFF782FB50B10220FFF734FB0D
:1015900000214046FFF794FBEC6102202870EEE743
:1015A0000820FFF773FB50B10820FFF725FB00214F
:1015B0004046FFF785FBEC6104202870DFE7202020
:1015C000FFF764FB50B12020FFF716FB00214046D7
:1015D000FFF776FBEC6106202870D0E71020FFF7BC
:1015E00055FB50B11020FFF707FB00214046FFF7E5
:1015F00067FBEC6105202870C1E74FF400763046A8
:10160000FFF744FB50B13046FFF7F6FA00214046A1
:10161000FFF756FBEC6107202870B0E72A20AEE701
:10162000140000202DE9F84F04000E4615467DD029
:10163000DFF8E4B12A218BF800100027CBF81870EE
:10164000DFF8DC817549CBF81070C8E90017C8F8DD
:101650000870C8F80C70C8F810704046C8F81470CC
:10166000FFF7DCFA0020FFF7D3FA0020FFF720FB9A
:10167000800102D50E20BDE8F88FDBF804000228B7
:1016800001D10502760A681EB0F5006F4ED2054200
:101690004CD1284600F03CFFDFF884910090A9F17E
:1016A00014094FF0400AC9E902A71021C9E9005105
:1016B00089014846C9F81010FFF72AFB1020FEF7F1
:1016C00091FD2A28D7D15549C8E9001500995448F9
:1016D0000901C8F808100221C8E903170121C8F858
:1016E0001410FFF79BFACBE90457CBF82440C9E963
:1016F00002A71121C9E900614FF48061D84648462C
:10170000C9F81010FFF704FB1120FEF76BFD064629
:101710002A287ED1D8F80C004746022850D14FF431
:101720000049404F40F22A6810E0FFE72620A2E778
:101730004846FFF7A1FA48B15FF00005FFF7E2FA6B
:1017400044F825006D1C082DF8D32034786B10EA7E
:10175000080FEDD00820FFF78FFA20B10820FFF71F
:1017600045FA042087E70220FFF786FA20B102201D
:10177000FFF73CFA02207EE72020FFF77DFA20B138
:101780002020FFF733FA062075E74FF4007528464E
:10179000FFF772FA40B12846FFF728FA07206AE7F8
:1017A000FFF7B0FA01C401E04FF400152846FFF737
:1017B00063FA0028F4D140F2FF50FFF717FA28E04F
:1017C00001280ED1012148F22A30FFF779FAB869D1
:1017D00010B938782A28FAD038782A2819D03878D9
:1017E00049E7B0B9012140F22A30FFF769FA012038
:1017F000FFF70EFA29462046FFF7CCFCFFF7AEFABA
:101800000028E9D1B8690028E6D138782A28F5D02F
:10181000E2E730462FE7000014000020FFFF0F0032
:10182000481100200080014010B5094908600720D8
:101830004860402088600020C8604FF480600861E4
:101840000846FFF765FABDE810400720FEF7CABC5E
:10185000341100202A2118B1012801D0022802D118
:10186000024AD06000E0262108467047140000209C
:1018700010B5084800210C22C0E900124022C0E93E
:10188000022111010161FFF743FABDE810400C206D
:10189000FEF7A8BC3411002010B5FFF7C3FB154CB0
:1018A00020701548FFF79CFA20701348B0F84C00E0
:1018B0000004FFF7B9FF20704FF40060FFF754FAFF
:1018C00020700020FFF7C6FF2070C0B22A2810D178
:1018D00009484FF4007200215030FFF7A3FE20703A
:1018E000C0B22A2805D1BDE8104004A10D4800F07F
:1018F0007BBB10BD00000020580200200D0A53449D
:10190000205344494F2D34626974C4A3CABD20B228
:10191000E2CAD45446BFA8B3C9B9A6A3A1200A20DD
:1019200000000000003801402DE9FC5F4FF0000688
:101930000400884617463546009664D0DFF8849246
:101940002A2189F80010C9F81860A0489E49C9F8F2
:101950001060C0E900168660C66006614661FFF748
:101960005DF90020FFF754F90020FFF7A1F980018D
:1019700002D50E20BDE8FC9FD9F80400022802D150
:1019800007024FEA5828781EB0F5006F3BD2074295
:1019900039D1384600F0BCFDDFF830A20190AAF141
:1019A000140A4FF0400BCAE902B61021CAE90071CF
:1019B00089015046CAF81010FFF7AAF91020FEF767
:1019C00011FC2A28D6D17F48D14680680104CAF884
:1019D00000100D21CAF804105046C0F808B04FF4AA
:1019E0008061C0E903617948DA46B3461438FFF7ED
:1019F0008FF90D20FEF7F6FB2A28BBD10020FFF758
:101A000057F9714E1CE02620B4E76E48761E8068B8
:101A10000104C9F800100D21C9E902ABC9F804108E
:101A20006A484FF480611438C9F81010FFF770F954
:101A30000D20FEF7D7FB2A289CD10020FFF738F9AC
:101A4000C00502D4002EE0D100E00EB9292091E7B4
:101A50001821C9E902ABC9E900815C484FF48061F3
:101A60001438C9F81010FFF753F91820FEF7BAFB25
:101A70002A28C9D1DFF84C815448C8E9047B524A6E
:101A8000C8F82040C0E90027019A01211201C0E9ED
:101A9000022BC0E904B14646FFF7C0F8F0680228FF
:101AA00054D1DFF82C9140F21A6A24E04FF48040C0
:101AB000FFF7E2F8F8B1D8F81000401B202810D248
:101AC00081074FEA900700D100E07F1C002605E067
:101AD0002068FFF73DF9761C241D2D1DBE42F7D36B
:101AE00009E0002654F82600FFF732F9761C082E8C
:101AF000F8D320342035D9F8340010EA0A0FD5D0B5
:101B00000820FFF7B9F820B10820FFF76FF804208C
:101B100030E70220FFF7B0F820B10220FFF766F8A7
:101B2000022027E71020FFF7A7F820B11020FFF7C9
:101B30005DF805201EE74FF400742046FFF79CF87F
:101B400078B32046FFF752F8072013E745460128EF
:101B50000ED1012144F21A30FFF7B2F8A86910B98A
:101B600028782A28FAD028782A281BD0287801E754
:101B7000B8B9012140F21A30FFF7A2F839462046E1
:101B8000FFF736FB0120FFF743F800BFFFF7E6F849
:101B90000028E8D1A8690028E5D128782A28F5D0BE
:101BA000E1E7FFE740F2FF50FFF720F86846FEF755
:101BB0002BFD2A28ACD19DF800100729F6D0062964
:101BC000F4D0D7E614000020FFFF0F0048110020DA
:101BD0000080014070B586B001210520FEF746FF68
:101BE0001024ADF814400325224E8DF816508DF8C0
:101BF000174005A93046FEF7ABFCA020ADF8140055
:101C00008DF8165018208DF8170005A93046FEF7FC
:101C10009FFC4020ADF8140004208DF8170005A9A2
:101C20003046FEF795FC01210803FEF71FFF002058
:101C3000ADF800004FF48271ADF80210ADF8080065
:101C4000ADF80C40ADF804006101ADF80600ADF848
:101C50000E000720084CADF80A10ADF810006946D8
:101C6000204600F046F80121204600F02DF806B08D
:101C700070BD0000000801400030014070B5104DFB
:101C8000064610212846FEF7B9FC0E4C02212046DC
:101C900000F024F80028F9D03146204600F027F85B
:101CA0000121204600F01AF80028F9D0102128461A
:101CB000FEF7A6FC204600F018F8C0B270BD000088
:101CC00000080140003001400029018802D041F0A5
:101CD000400101E021F04001018070470246128975
:101CE00000200A4200D0012070478089704781811E
:101CF000704770B502884D8802F441530A888C8879
:101D0000CE882A4334430D8922434C892A438D8946
:101D10002243CC892A4322431A430280828B22F435
:101D200000628283098A018270BD0000F0B5012142
:101D300087B08803FEF78EFE4FF46040ADF80400D4
:101D400003248DF8064018202E4E8DF8070001A9B7
:101D50003046FEF7FDFB0127ADF804708DF8064014
:101D600010258DF8075001A93046FEF7F1FB280237
:101D7000ADF804008DF806408DF8075001A93046F3
:101D8000FEF7E6FBADF8047001A91F48FEF7E0FB83
:101D900040201E4CADF8040001A92046FEF7D8FBF8
:101DA00028208DF807008020ADF8040001A9204606
:101DB000FEF7CEFB0020ADF808004FF48271ADF8BD
:101DC0000A106115ADF81000ADF812102021ADF821
:101DD0001410ADF80C00ADF80E00ADF81600072099
:101DE0000B4CADF8180002A92046FFF782FF012135
:101DF0002046FFF769FF01213046FEF701FC07B0DE
:101E0000F0BD0000000C014000180140001001402E
:101E10000038004070470000214900200A6842F461
:101E200080320A604FF4A0630A68401C12F4003F3D
:101E300001D19842F8D10868800330D5194802686A
:101E400042F010020260026822F00302026002689F
:101E500042F002020260486848604868486048688A
:101E600040F480604860486820F47C10486048680E
:101E700040F4E8104860086840F080700860086826
:101E80008001FCD5486820F003004860486840F0B5
:101E9000020048604868C0F381000228FAD1704708
:101EA000001002400020024000F028B810B50F4892
:101EB000016841F00101016041680D4A1140416033
:101EC00001680C4A11400160016821F48021016021
:101ED000416821F4FE0141604FF41F018160FFF76A
:101EE0009BFF05494FF00060086010BD00100240E4
:101EF0000000FFF8FFFFF6FE08ED00E00348416830
:101F0000002902D04168491E41607047000000204E
:101F10000029818902D041F4005101E021F40051EF
:101F2000818170470246128800200A4200D00120B9
:101F30007047000030B50446008A85B00D464CF667
:101F4000FF710840E98801432182A0894EF6F31110
:101F50000840A9882A8911436A8902431143A18153
:101F6000A08A4FF6FF410840A9890143A182684633
:101F7000FEF796FD1B48844201D1039800E00298C9
:101F8000A1890904002900EBC00101EB00102968B8
:101F900002DA4FEA410101E04FEA8101B0FBF1F0C2
:101FA0006422B0FBF2F14FEA01114FEA11136FF016
:101FB00018056B43A58900EB830032232D0406D559
:101FC00003EBC000B0FBF2F000F0070005E003EB0C
:101FD0000010B0FBF2F000F00F000843208105B0C4
:101FE00030BD0000003801400FB47FB506460AAD91
:101FF0004AE05C290DD1401C099001786E2903D07C
:10200000722920D10D2100E00A21304600F043F86A
:1020100018E000F10100252909902CD101786429EC
:1020200014D073290FD110CD09E0304600F033F8F9
:1020300040213046FFF776FF0028F9D0641C217854
:102040000029F2D10998401C099017E001CD0A221D
:10205000694601F0E9F96C4609E0304600F01BF8EA
:1020600040213046FFF75EFF0028F9D0641C21783C
:102070000029F2D1E6E7304600F00DF84021304665
:10208000FFF750FF0028F9D0099801780029B0D156
:102090007FBC5DF814FBC1F3080181807047FEE747
:1020A00070B586B04FF40055ADF8145003248DF888
:1020B000164010201F4E8DF8170005A93046FEF778
:1020C00047FA29463046FEF799FA01218803FEF7C0
:1020D000CDFC2811ADF814008DF816401820164CD0
:1020E0008DF8170005A92046FEF732FA2015ADF845
:1020F000140004208DF8170005A92046FEF728FAE1
:102100004FF4E13001900020ADF80800ADF80A006E
:10211000ADF80C00ADF810000C20084CADF80E0026
:1021200001A92046FFF706FF01212046FFF7F0FE38
:1021300006B070BD001401400008014000380140A5
:1021400070B50B4C054602212046FFF7C7FD00285D
:10215000F9D029462046FFF7CAFD01212046FFF7A6
:10216000BDFD0028F9D02046FFF7BFFDC0B270BD0D
:10217000003800402DE9F04105460F480E46C16881
:10218000174641F04001C1600C4C206820F480509B
:1021900020600220FFF7D4FF2846FFF7D1FF30462A
:1021A000FFF7CEFF3846FFF7CBFF206840F48050A2
:1021B0002060BDE8F0810000001001400C0C0140DF
:1021C00070B5214CD4F80C0820F00100C4F80C08BC
:1021D0004FF47A752846FEF70FF9FF20FFF7B0FF9E
:1021E000E06840F04000E0601848016841F4805128
:1021F0000160D4F80C0840F00100C4F80C0828462F
:10220000FEF7FAF8002208211046FFF7B3FF00227C
:1022100098210320FFF7AEFF8122BB210520FFF7A5
:10222000A9FF0B48027841780220FFF7A3FF0022A4
:1022300011460B20FFF79EFF80212046FEF7D7F9BD
:102240000028F9D070BD0000001001400C0C0140C6
:102250001000002002E008C8121F08C1002AFAD1AD
:1022600070477047002001E001C1121F002AFBD116
:102270007047000010B504460A464078012304F177
:10228000300100F044FD08B1032010BDB4F82E0267
:10229000A0F52A41553901D0022010BD94F86610EE
:1022A000D4F86720094841EA0221B0EB012F08D099
:1022B00094F88210D4F8832041EA0221B0EB012F78
:1022C00001D1002010BD012010BD00000046415486
:1022D00000E0401C02780AB18A42FAD100787047C7
:1022E0002DE9F041154602680B461178303909296D
:1022F00005D854783A2C02D1921C026000E00021EB
:1023000000261E6011B10B20BDE8F08177480468FB
:102310000CB90C20F8E71C60207848B1607800F018
:1023200000FDC10704D10DB140070ED40020EBE73A
:102330002670B0463046667000F0E5FCC10701D05B
:102340000320E1E71DB1400701D50A20DCE70026A4
:1023500031462046FFF78EFF01280DD104F5F770B6
:10236000017900297DD0017AD0F8090041EA0026E0
:1023700031462046FFF77EFF032801D10120C3E745
:1023800000286ED1B4F83B00B0F5007F69D1B4F8F5
:1023900046E0BEF1000F05D194F85400D4F8551072
:1023A00040EA012EC4F81CE094F84000E0700128D7
:1023B00001D0022855D10EFB00FC94F83D00A0701E
:1023C00000284ED0411E08424BD1B4F84100208174
:1023D00083B2180745D1B4F8430028B994F85000E7
:1023E000D4F8511040EA0120E28F72B302EB0C01E5
:1023F00001EB1311884234D3A578401AB0FBF5F0F5
:1024000018B3012540F6F677B84200D302254FF6FF
:10241000F677B84200D303253144A162801CB1187D
:10242000A0612162032D09D17BB994F85C10D4F826
:102430005D20800041EA022161620DE02BB1614420
:102440006162022D02D1400006E00AE000F00101C5
:1024500000EB400001EB500000F2FF10BEEB502FEC
:1024600001D20D2050E74FF0FF30C4E9038047460A
:10247000032D31D16771B4F86000012382196261C4
:10248000607804F1300100F042FC28BBB4F82E0261
:10249000A0F52A4155391FD194F83000D4F83110F5
:1024A000134A40EA0120904216D194F81402D4F85D
:1024B0001522104940EA022088420DD194F81C02EE
:1024C000D4F81D1240EA0120E06094F81802D4F814
:1024D000191240EA0120206104492570091F08886B
:1024E000401C0880E080E76227711FE7540000204D
:1024F00052526141727241618269891E921E8A4202
:1025000001D800207047826A807801FB0020704764
:10251000002102E04008491CC9B20128FAD108464E
:1025200070472DE9F04106460F0006D1F56815B158
:10253000B069A8420ED801250CE03946304600F0BB
:10254000A8FE022802D20120BDE8F081B1698142D3
:10255000FAD83D462C46B069641CA04202D8022439
:10256000022D0AD32146304600F093FE38B1411CBB
:10257000EAD00128E8D0AC42EDD10020E4E76FF0CA
:1025800070422146304600F0EFFF78B92FB1224665
:102590003946304600F0E8FF40B9F4603069411C2C
:1025A00009D0401E30610120707104E04FF0FF340B
:1025B000012800D001242046C6E700002DE9F35F82
:1025C00088460E6800E0761C30782F28FBD05C2807
:1025D000F9D000980024D0F81CB02546705D6D1C21
:1025E000202826D32F2824D05C2822D0FF2C36D2B6
:1025F000C0B2A0F181017D290BD8715D6D1CA1F1E4
:1026000040023F2A02D3403A7F2A28D201EB002021
:1026100080B2012100F090FD070020D0802F04D26D
:1026200039466AA0FFF754FEC8B92BF81470641C31
:10263000D4E771190425C8F8001020280BD3002511
:1026400009E000BF0BEB440030F8020C202801D059
:102650002E2803D1641E002CF4D100E014B906200A
:10266000BDE8FC9F00212BF8141000980B22806914
:10267000202100F03DFF002700E07F1C3BF8170001
:102680002028FAD02E28F8D01FB145F0030500E02D
:10269000641E2CB10BEB440030F8020C2E28F7D14D
:1026A0000020804681464FF0080A00BF3BF81760C3
:1026B0007F1C002E60D0202E03D02E2E04D1A742E6
:1026C00002D045F00305F1E7D04501D2A74214D16D
:1026D000BAF10B0F02D145F003054DE0A74201D03E
:1026E00045F0030548D84FEA896027464FF00808AF
:1026F0004FF00B0A4FEA1069D8E7802E08D3304616
:1027000000F040FD002100F017FD064645F00205EF
:10271000FF2E10D9AAF10100804503D345F003052F
:10272000D046C3E70098310A826908F1010302F834
:102730000810984618E026B1314627A0FFF7C8FDDB
:1027400018B15F2645F003050EE0A6F141001928F7
:1027500002D849F0020907E0A6F16100192803D860
:10276000203E49F00109B6B2009808F101018269E2
:1027700002F80860884699E7009880690178E529A1
:1027800001D105210170BAF1080F03D14FEA896028
:102790004FEA1069C9F38100032803D06FEA0901E9
:1027A000890701D145F00205A90709D409F0030101
:1027B000012901D145F01005012801D145F0080596
:1027C00000988069C57200204AE70000222A3A3C3E
:1027D0003E3F7C7F000000002B2C3B3D5B5D0000FA
:1027E0002DE9F05F0546002100F04EFA00287ED169
:1027F000FF26B3462969286800F081FE07007CD1D6
:102800006C69207808B9042777E0E17AE52801F0BF
:102810003F0103D00A0703D50F2903D0FF2663E049
:102820000F2948D1E96900295ED0420606D594F8FF
:102830000DB020F04000EB8806462B84B04237D123
:10284000607B584534D120788A4620F04000401EF5
:1028500000EB800101EBC0074FF000094FF00108C9
:102860002748B8F1000F10F80900204400880BD069
:1028700000F088FC8046FF2F1AD23AF817007F1C20
:1028800000F080FC414601E04FF6FF7188420FD115
:1028900009F1010081460D28E2D32078400605D5D4
:1028A000B8F1000F02D03AF8170008B9761E00E020
:1028B000FF26F6B218E026B9204600F004FF58457E
:1028C0001BD04FF6FF702884A869FF26C17AC9077C
:1028D0000AD10B210022491E05D314F8012B10F850
:1028E000013BD21AF7D042B10021284600E005E0B2
:1028F00000F008F807003FF47DAF3846BDE8F09FD0
:10290000BC3700082DE9F0410446C0880E46401C43
:1029100007043F0C1DD02069D8B139075CD1401C99
:102920002061E168206819B90089B84254D810E0E4
:102930008278521E12EA171F4ED100F0AAFC0546FB
:10294000012812D9681C32D020688169A9423DD87B
:1029500016B90420BDE8F081E168FFF7E2FD05004B
:1029600001D10720F6E7012D01D10220F2E7681C12
:102970001DD00021206800F0C2FDC0B920684FF4CE
:1029800000723030002100F0B3FD29462068FFF7C7
:10299000B3FD216800264FF00108C8620FE000BFB8
:1029A00080F804800021206800F0A9FD08B1012012
:1029B000D0E72068761CC16AF6B2491CC162206863
:1029C0008178B142ECD8C16A891BC162E5602946B1
:1029D0002068FFF791FD2061E78007F00F013022AA
:1029E000206802EB4111084460610020B2E700005A
:1029F0002DE9F047FF250446A84604264FF6FF7749
:102A00004FF0000957E0206800F079FD060056D12C
:102A10006069017809B9042651E0C27AE52902F01B
:102A20003F0205D02E2903D0130703D50F2A03D068
:102A3000FF253AE00F2A47D14A0606D590F80D80C7
:102A400021F04001E3880D462384A9422BD1427B2B
:102A5000424528D10178DFF880E001F03F01491EAE
:102A600001EB810202EBC1010022D4F81C600123BA
:102A70001EF802C08444BCF800C033B1FF2912D252
:102A800026F811C06346491C01E0BC450BD1521C1D
:102A90000D2AEDD30078400603D5FF2903D226F88E
:102AA00011906D1E00E0FF25EDB200212046FFF7DA
:102AB00029FF060003D121690029A4D10EB1C4F871
:102AC00010903046BDE8F0871DB900F0FCFD404590
:102AD000F7D02784F5E70000BC3700082DE9FE4F4A
:102AE000D0E9067604460C223946684600F0F6FC2A
:102AF0009DF80B00C0071CD00020F8720125E06192
:102B00002B4632466946384600F086FB2046FFF7E2
:102B100067FE18B96D1CADB2642DF1D3642D02D1DE
:102B20000720BDE8FE8F0428FBD19DF80B00F8724A
:102B3000E6619DF80B0080070DD5002001E0401CE8
:102B400080B236F810100029F9D119300D21B0FBF0
:102B5000F1F087B200E001270021204600F094F850
:102B60000028DED10026B0462169206800F0C7FCAD
:102B7000050013D160690078E52800D038B90EB996
:102B8000B4F80680761CB6B2BE4208D000E000263B
:102B900001212046FFF7B6FE0500E5D070E0012FC9
:102BA00055D94146204600F06FF8050068D1A0696C
:102BB00000F089FD7F1E83461FFA87F94FF6FF7AE2
:102BC0002169206800F09BFC050059D16169D4F8A7
:102BD0001C8081F80DB00F20C87200200873887621
:102BE00009F0FF0CC876ACF1010000EB800202EBAB
:102BF000C0030022DFF88CE04F1C01E0504502D0FA
:102C000038F813005B1C1EF8025048551EF802608D
:102C1000050AF55500B95046521C0D2AEED3504511
:102C200002D038F8130008B94CF0400C81F800C00D
:102C300021680120087100212046FFF763FE05008E
:102C40001ED1A9F1010080B25FEA0009B8D1216963
:102C5000206800F054FC050012D166692022002192
:102C6000304600F045FC0B223046A16900F036FCEE
:102C7000A069C07A00F01800307321680120087143
:102C800028464EE7BC37000870B50D46C180816804
:102C90000446012920D0206882698A421CD951B992
:102CA0000278032A01D1416A29B9E1600189A94268
:102CB00012D9406A1AE08078060111E0206800F01D
:102CC000E8FA0146401C01D1012070BD022903D35E
:102CD00020688069884201D8022070BDA81B85B297
:102CE000B542EBD2E1602068FFF706FC00EB15105F
:102CF000206105F00F013022206802EB41110844E9
:102D00006061002070BD002070470020704710B542
:102D10000846012B03D151025A02FEF783FC002022
:102D200010BD0020704710B50846012B03D1510299
:102D30005A02FEF7F9FD002010BD10B5044600F060
:102D4000AFF9002801D10021216010BD08B10B208E
:102D50007047054B0022186800B1027001B10A707B
:102D60000020196070470000540000202DE9F7474B
:102D70008DB0070003D1092010B0BDE8F0874FF0F7
:102D8000000802F01F0626F0010204A90EA8C7F8E9
:102D90000080FFF7A5FA050023D101A80A90424858
:102DA0000B9004A80E9900F003FA099C050001D1CC
:102DB00004B9062516F01C0F4BD05DB1042D03D1CC
:102DC00004A8FFF78BFE0546099C46F00806002D77
:102DD00067D107E0E07A10F0110F44D1700701D5F8
:102DE00008255EE0300744D500F0AEFAA073010A72
:102DF000E173010C2174000E607484F80B8084F878
:102E00001C8084F81D8084F81E8084F81F80214671
:102E1000049800F036FB81460021204600F04BFC70
:102E200001200499B9F1000F087120D00498494697
:102E3000D0F82CA000F00FFC050032D10499A9F1C4
:102E40000100C8605146049800F059FB050028D1E4
:102E50000BE035BBE07AC10601D5042521E0B107BE
:102E600003D5C00701D007251BE0300701D546F088
:102E7000200604982146C06AC7E90704BE71049879
:102E800000F0FFFA3861207FD4F81D1040EA0120DD
:102E9000C7E90280C7F81880049838600498C08891
:102EA000B880284668E700006011002073B584B040
:102EB000040002D1092006B070BD0022214605A8F9
:102EC000FFF70EFA25680026E8B901A8A0610F48AF
:102ED000E0612046059900F06BF970B9616931B184
:102EE000C87AC0060BD5284600F0CBFAA060E88867
:102EF000A08000212046FFF7C7FE042801D105204D
:102F000001E00028D7D02660D5E70000601100203E
:102F10002DE9F05F89460021044616469A4619605D
:102F200000F03AFC002803D1A079010602D5022066
:102F3000BDE8F09FC00701D10720F9E7D4E90221DD
:102F4000881A04F1240B86427CD906467AE0A168EF
:102F5000C8055FD120688278521E02EA512212F021
:102F6000FF070AD109B9206902E0616900F091F90F
:102F7000022807D3411C45D0606161692068FFF7D2
:102F8000BBFA20B9A07940F08000A071CFE700EB38
:102F90000708750A1DD020687A1981788A4200D9FD
:102FA000CD1B4078EBB242464946FFF7B0FE48BB26
:102FB000A07940060BD5A069A0EB0800A84206D274
:102FC00009EB40204FF40072594600F087FA6D0279
:102FD0002EE0A26942451BD0A07940060AD52068A0
:102FE000012340785946FFF79EFE58B9A07920F09A
:102FF0004000A07120680123407842465946FFF7FF
:1030000086FE28B1A07940F08000A07101208FE7F2
:10301000C4F81880A068C0F30800C0F50075B54278
:1030200000D93546011924312A46484600F056FA9F
:10303000A168A9442944A160DAF80000761B28445D
:10304000CAF80000002E82D1002071E7FEB50446C8
:103050000D4600F0A1FB002804D125B9002120462F
:10306000FFF712FEFEBDC4F818D00C48E061204600
:10307000FFF7BEFC0026042801D1266101E00028EC
:10308000F0D12946204600F061F900212046FFF7E3
:1030900039FC0428E6D100202661FEBD6011002025
:1030A00070B5044600F078FB00280ED1A1798A069D
:1030B0000BD548060ED520680123407804F1240181
:1030C000A269FFF730FE08B1012070BDA07920F0A1
:1030D0004000A071E169206800F011FA0028F4D1E5
:1030E000256AE87A40F02000E872E0682877E06816
:1030F000000A6877E068000CA877E068000EE877BF
:103100002846216900F0D7FA00F01EF9A875010AD7
:10311000E975010C2976000E68760020A874E87421
:10312000A07920F02000A07121680120087120689A
:10313000BDE8704000F0D4BA70B580281BD345F2CA
:10314000205409B10D4D00E00D4D00231021E21A6D
:1031500002EBD27203EB620235F82260864206D09F
:1031600001D2134600E01446491EF0D104E019B123
:1031700005EB8200408870BD002070BD4E8C0108B8
:10318000CA3700080021084B00E0491C33F8112021
:103190000AB18242F9D133F81120002A02D0034843
:1031A00030F8110070470000D2E00208B2E20208D5
:1031B00073B50199044608782F2801D05C2801D105
:1031C000491C01910025A56001980078202805D2AE
:1031D00000212046FFF758FD65617CBD01A920460E
:1031E000FFF7ECF90028F8D12046FFF7F9FAA169BA
:1031F000C97A28B10428F0D14907EED405207CBD56
:103200004907FCD46169C87AC006F7D5206800F088
:1032100038F9A060E2E700007CB5164605461C467A
:103220000B2200F05BF9052C09D93188600800EB0E
:10323000C43036F8022F084484B2002AF5D10721A1
:103240004FEA0D0304F00F003030392801D9C01DBA
:10325000C0B25854491E2409F4D17E20585400208D
:103260004C1E06E0813A7D2A02D8A04206D0401CBE
:10327000401C884202D22A5C202AF3D12024224614
:10328000082901D25A5C491C2A54401C0828F6D34C
:103290007CBD2DE9F04104460D46022902D3A06908
:1032A000A84202D80120BDE8F0812078012818D07A
:1032B00002283AD0032844D1206A00EBD5112046D9
:1032C00000F01DF980BB40F2FF1000EA85002044A9
:1032D00010F8301FD0F8010041EA002020F07040C3
:1032E000E1E7206A05EB550600EB5621204600F089
:1032F00006F9C8B9C6F30800204490F83070206A77
:10330000761C00EB5621204600F0F9F860B9C6F3B0
:103310000800204490F8300047EA00210809EA0735
:10332000C1D1C1F30B00BEE70BE0206A00EB152111
:10333000204600F0E4F820B9E8B204EB4000008E2B
:10334000B1E74FF0FF30AEE7002070472DE9F041C4
:103350000E4601F109050169C1B342690023147BDE
:10336000D15C20290FD0052900D1E521270705D5FB
:10337000A1F14107192F01D82031C9B25B1C05F812
:10338000011B082BECD3117A202913D02E2105F82C
:10339000011B0823D15C20290CD0E70605D5A1F13B
:1033A0004107192F01D82031C9B25B1C05F8011B58
:1033B0000B2BEFD3D17A3172117FD2F81D3041EA55
:1033C00003213160118BB180D18AF1804FF0000868
:1033D00085F80080B569002D23D0F169002920D03F
:1033E00001690024D9B1018CA1F57F42FF3A16D0C2
:1033F000C76910E00021FFF79FFE40B1FF2802D906
:10340000010A2955641CF169491EA14201D8002412
:1034100005E02855641C37F8020B0028EAD105F8AE
:103420000480BDE8F0810000F0B500250B462E4673
:103430000A2A01D01E7005E0002805D14FF03000A7
:1034400018705E700846F0BD05DA4FF02D0203F8E3
:10345000012BC0F1000042F210724FF00A0C00BFC5
:1034600090FBF2F454EA050706D004F1300503F8A6
:10347000015B04FB1200012592FBFCF2002AEFDC49
:10348000D8E702461278488B032A02D1898A40EA9B
:103490000140704710B5FDF7F5FA40F2CF214FF02B
:1034A000E02041610C4AF021117000218161072167
:1034B0000161FDF74DF9FEF7F3FDFEF737FCFEF76E
:1034C00089FBFDF72DF942F21070FCF795FFFEF72E
:1034D000E3F9FDF78BF9FEE723ED00E010B504E01A
:1034E00011F8013B441C03702046521EF8D210BD57
:1034F000C9B201E000F8011B521EFBD270472DE952
:10350000F041C56A04460F468D422BD0217904F163
:103510003008D9B1607801232A464146FFF703FC01
:10352000E0B900202071D4E907100844A8420DD961
:10353000E67809E0E0690123054460782A464146BF
:10354000FFF7F1FB761EF6B2012EF3D857B1607883
:1035500001233A464146FFF7DAFB10B10120BDE8EE
:10356000F081E7620020FAE72DE9F04104460D46BC
:103570001646022902D3A069A84202D80220BDE85B
:10358000F08120784FF00108012820D002284FD088
:1035900003285CD1206A00EBD5112046FFF7AFFF6E
:1035A000002855D140F2FF1101EA85012144303154
:1035B000D1F801204FF0704303EA022232430A702F
:1035C000130A4B70130C8B70120ECA7040E0206A05
:1035D00005EB550700EB57212046FFF790FF30BB66
:1035E000C7F3080020443030F1B2EA0703D0027874
:1035F00061F31F121146017084F80480206A7F1C59
:1036000000EB57212046FFF77AFF80B9C7F3080186
:1036100021443031EA0702D0C6F3071206E00A78E7
:10362000330AC3F3030302F0F0021A430A700FE0F7
:10363000206A00EB15212046FFF761FF40B9E9B28F
:1036400004EB410101F8306F320A4A7000E00220B9
:1036500084F8048093E72DE9F04105460E460229DF
:103660000ED3A869B0420BD900274FF001081CE027
:1036700031462846FFF70DFE040019D0012C01D178
:10368000022715E0601C01D1012711E0002231461C
:103690002846FFF769FF07000AD12869411C03D0BB
:1036A000401C286185F805802646A869B042DFD80D
:1036B0003846BDE8F08181760A0AC2760A0C0275A6
:1036C000090E41757047014600200B22430803EBA9
:1036D000C01011F8013B521E1844C0B2F6D1704719
:1036E0002DE9F04104460021FFF709FF050050D104
:1036F0002078032846D16079F0B3002604F1300029
:103700004FF4007231460746E662FFF7F1FE55209E
:1037100084F82E02AA2084F82F02522084F8300068
:1037200084F83100612184F83210412284F833207A
:10373000722084F8140284F8150284F8162284F8A2
:103740001712206984F81802010A84F81912010C72
:1037500084F81A12000E84F81B02E06884F81C0238
:10376000010A84F81D12010C000E84F81E1284F860
:103770001F026078012300E004E039466269FFF728
:10378000D2FA6671002260781146FFF7BEFA00B1E6
:1037900001252846BDE8F08110B5016829B10A78F5
:1037A0001AB1CA888088824201D0092010BD4878A9
:1037B000FFF7B7FAC007F9D0032010BD01030507D2
:1037C000090E10121416181C1E00A400E8A1A70070
:1037D000ECA1A800A7A1B000E3A1B100C0A1B7006F
:1037E000A4A1D700C1A1E000A4A8E100A2A8E8001C
:1037F000A8A8E900A6A8EA00BAA8EC00ACA8ED00C9
:10380000AAA8F200B0A8F300AEA8F700C2A1F90080
:10381000B4A8FA00B2A8FC00B9A80101A1A813013C
:10382000A5A81B01A7A82B01A9A84401BDA8480170
:10383000BEA84D01ADA86B01B1A8CE01A3A8D001CF
:10384000ABA8D201AFA8D401B3A8D601B5A8D801BE
:10385000B6A8DA01B7A8DC01B8A85102BBA861027A
:10386000C0A8C702A6A1C902A5A1CA0240A8CB024E
:1038700041A8D90242A89103A1A69203A2A693034C
:10388000A3A69403A4A69503A5A69603A6A69703AC
:10389000A7A69803A8A69903A9A69A03AAA69B037C
:1038A000ABA69C03ACA69D03ADA69E03AEA69F034C
:1038B000AFA6A003B0A6A103B1A6A303B2A6A4031A
:1038C000B3A6A503B4A6A603B5A6A703B6A6A803E8
:1038D000B7A6A903B8A6B103C1A6B203C2A6B30393
:1038E000C3A6B403C4A6B503C5A6B603C6A6B7034C
:1038F000C7A6B803C8A6B903C9A6BA03CAA6BB031C
:10390000CBA6BC03CCA6BD03CDA6BE03CEA6BF03EB
:10391000CFA6C003D0A6C103D1A6C303D2A6C403B9
:10392000D3A6C503D4A6C603D5A6C703D6A6C80387
:10393000D7A6C903D8A60104A7A71004A1A71104FC
:10394000A2A71204A3A71304A4A71404A5A71504EF
:10395000A6A71604A8A71704A9A71804AAA71904BC
:10396000ABA71A04ACA71B04ADA71C04AEA71D048B
:10397000AFA71E04B0A71F04B1A72004B2A721045B
:10398000B3A72204B4A72304B5A72404B6A725042B
:10399000B7A72604B8A72704B9A72804BAA72904FB
:1039A000BBA72A04BCA72B04BDA72C04BEA72D04CB
:1039B000BFA72E04C0A72F04C1A73004D1A731048C
:1039C000D2A73204D3A73304D4A73404D5A735042F
:1039D000D6A73604D8A73704D9A73804DAA73904FC
:1039E000DBA73A04DCA73B04DDA73C04DEA73D04CB
:1039F000DFA73E04E0A73F04E1A74004E2A741049B
:103A0000E3A74204E4A74304E5A74404E6A745046A
:103A1000E7A74604E8A74704E9A74804EAA749043A
:103A2000EBA74A04ECA74B04EDA74C04EEA74D040A
:103A3000EFA74E04F0A74F04F1A75104D7A7102019
:103A40005CA9132043A81420AAA1152044A816207D
:103A5000ACA11820AEA11920AFA11C20B0A11D203F
:103A6000B1A1252045A82620ADA13020EBA1322010
:103A7000E4A13320E5A1352046A83B20F9A1AC20E4
:103A800080000321E6A1052147A8092148A81621A5
:103A9000EDA1212159A96021F1A26121F2A26221A7
:103AA000F3A26321F4A26421F5A26521F6A26621A6
:103AB000F7A26721F8A26821F9A26921FAA26A2176
:103AC000FBA26B21FCA27021A1A27121A2A27221F2
:103AD000A3A27321A4A27421A5A27521A6A2762176
:103AE000A7A27721A8A27821A9A27921AAA2902130
:103AF000FBA19121FCA19221FAA19321FDA1962184
:103B000049A897214AA898214BA899214CA8082296
:103B1000CAA10F22C7A11122C6A115224DA81A229F
:103B2000CCA11D22D8A11E22DEA11F224EA8202238
:103B3000CFA123224FA82522CEA12722C4A128222B
:103B4000C5A12922C9A12A22C8A12B22D2A12E2295
:103B5000D3A13422E0A13522DFA13622C3A137222E
:103B6000CBA13D22D7A14822D6A14C22D5A15222D9
:103B700050A86022D9A16122D4A16422DCA16522CF
:103B8000DDA1662251A8672252A86E22DAA16F2217
:103B9000DBA1952292A89922D1A1A522CDA1BF2275
:103BA00053A81223D0A16024D9A26124DAA26224EE
:103BB000DBA26324DCA26424DDA26524DEA26624E9
:103BC000DFA26724E0A26824E1A26924E2A27424AF
:103BD000C5A27524C6A27624C7A27724C8A27824D9
:103BE000C9A27924CAA27A24CBA27B24CCA27C24A9
:103BF000CDA27D24CEA27E24CFA27F24D0A2802479
:103C0000D1A28124D2A28224D3A28324D4A2842448
:103C1000D5A28524D6A28624D7A28724D8A2882418
:103C2000B1A28924B2A28A24B3A28B24B4A28C2488
:103C3000B5A28D24B6A28E24B7A28F24B8A2902458
:103C4000B9A29124BAA29224BBA29324BCA2942428
:103C5000BDA29524BEA29624BFA29724C0A29824F8
:103C6000C1A29924C2A29A24C3A29B24C4A2002563
:103C7000A4A90125A5A90225A6A90325A7A904256C
:103C8000A8A90525A9A90625AAA90725ABA908253C
:103C9000ACA90925ADA90A25AEA90B25AFA90C250C
:103CA000B0A90D25B1A90E25B2A90F25B3A91025DC
:103CB000B4A91125B5A91225B6A91325B7A91425AC
:103CC000B8A91525B9A91625BAA91725BBA918257C
:103CD000BCA91925BDA91A25BEA91B25BFA91C254C
:103CE000C0A91D25C1A91E25C2A91F25C3A920251C
:103CF000C4A92125C5A92225C6A92325C7A92425EC
:103D0000C8A92525C9A92625CAA92725CBA92825BB
:103D1000CCA92925CDA92A25CEA92B25CFA92C258B
:103D2000D0A92D25D1A92E25D2A92F25D3A930255B
:103D3000D4A93125D5A93225D6A93325D7A934252B
:103D4000D8A93525D9A93625DAA93725DBA93825FB
:103D5000DCA93925DDA93A25DEA93B25DFA93C25CB
:103D6000E0A93D25E1A93E25E2A93F25E3A940259B
:103D7000E4A94125E5A94225E6A94325E7A944256B
:103D8000E8A94525E9A94625EAA94725EBA948253B
:103D9000ECA94925EDA94A25EEA94B25EFA9502507
:103DA00054A8512555A8522556A8532557A854253F
:103DB00058A8552559A856255AA857255BA858250F
:103DC0005CA859255DA85A255EA85B255FA85C25DF
:103DD00060A85D2561A85E2562A85F2563A86025AF
:103DE00064A8612565A8622566A8632567A864257F
:103DF00068A8652569A866256AA867256BA868254F
:103E00006CA869256DA86A256EA86B256FA86C251E
:103E100070A86D2571A86E2572A86F2573A87025EE
:103E200074A8712575A8722576A8732577A88125B1
:103E300078A8822579A883257AA884257BA885255A
:103E40007CA886257DA887257EA8882580A8892529
:103E500081A88A2582A88B2583A88C2584A88D25F6
:103E600085A88E2586A88F2587A8932588A89425C0
:103E700089A895258AA8A025F6A1A125F5A1B22596
:103E8000F8A1B325F7A1BC258BA8BD258CA8C62514
:103E9000F4A1C725F3A1CB25F0A1CE25F2A1CF2512
:103EA000F1A1E2258DA8E3258EA8E4258FA8E525BC
:103EB00090A80526EFA10626EEA1092691A8402686
:103EC000E2A14226E1A10030A1A10130A2A102306D
:103ED000A3A10330A8A10530A9A1063065A9073028
:103EE00096A90830B4A10930B5A10A30B6A10B30AB
:103EF000B7A10C30B8A10D30B9A10E30BAA10F3066
:103F0000BBA11030BEA11130BFA1123093A8133055
:103F1000FEA11430B2A11530B3A11630BCA11730E8
:103F2000BDA11D3094A81E3095A8213040A9223093
:103F300041A9233042A9243043A9253044A9263081
:103F400045A9273046A9283047A9293048A941303A
:103F5000A1A44230A2A44330A3A44430A4A4453079
:103F6000A5A44630A6A44730A7A44830A8A4493049
:103F7000A9A44A30AAA44B30ABA44C30ACA44D3019
:103F8000ADA44E30AEA44F30AFA45030B0A45130E9
:103F9000B1A45230B2A45330B3A45430B4A45530B9
:103FA000B5A45630B6A45730B7A45830B8A4593089
:103FB000B9A45A30BAA45B30BBA45C30BCA45D3059
:103FC000BDA45E30BEA45F30BFA46030C0A4613029
:103FD000C1A46230C2A46330C3A46430C4A46530F9
:103FE000C5A46630C6A46730C7A46830C8A46930C9
:103FF000C9A46A30CAA46B30CBA46C30CCA46D3099
:10400000CDA46E30CEA46F30CFA47030D0A4713068
:10401000D1A47230D2A47330D3A47430D4A4753038
:10402000D5A47630D6A47730D7A47830D8A4793008
:10403000D9A47A30DAA47B30DBA47C30DCA47D30D8
:10404000DDA47E30DEA47F30DFA48030E0A48130A8
:10405000E1A48230E2A48330E3A48430E4A4853078
:10406000E5A48630E6A48730E7A48830E8A4893048
:10407000E9A48A30EAA48B30EBA48C30ECA48D3018
:10408000EDA48E30EEA48F30EFA49030F0A49130E8
:10409000F1A49230F2A49330F3A49B3061A99C3038
:1040A00062A99D3066A99E3067A9A130A1A5A23062
:1040B000A2A5A330A3A5A430A4A5A530A5A5A6308C
:1040C000A6A5A730A7A5A830A8A5A930A9A5AA305C
:1040D000AAA5AB30ABA5AC30ACA5AD30ADA5AE302C
:1040E000AEA5AF30AFA5B030B0A5B130B1A5B230FC
:1040F000B2A5B330B3A5B430B4A5B530B5A5B630CC
:10410000B6A5B730B7A5B830B8A5B930B9A5BA309B
:10411000BAA5BB30BBA5BC30BCA5BD30BDA5BE306B
:10412000BEA5BF30BFA5C030C0A5C130C1A5C2303B
:10413000C2A5C330C3A5C430C4A5C530C5A5C6300B
:10414000C6A5C730C7A5C830C8A5C930C9A5CA30DB
:10415000CAA5CB30CBA5CC30CCA5CD30CDA5CE30AB
:10416000CEA5CF30CFA5D030D0A5D130D1A5D2307B
:10417000D2A5D330D3A5D430D4A5D530D5A5D6304B
:10418000D6A5D730D7A5D830D8A5D930D9A5DA301B
:10419000DAA5DB30DBA5DC30DCA5DD30DDA5DE30EB
:1041A000DEA5DF30DFA5E030E0A5E130E1A5E230BB
:1041B000E2A5E330E3A5E430E4A5E530E5A5E6308B
:1041C000E6A5E730E7A5E830E8A5E930E9A5EA305B
:1041D000EAA5EB30EBA5EC30ECA5ED30EDA5EE302B
:1041E000EEA5EF30EFA5F030F0A5F130F1A5F230FB
:1041F000F2A5F330F3A5F430F4A5F530F5A5F630CB
:10420000F6A5FC3060A9FD3063A9FE3064A9053134
:10421000C5A80631C6A80731C7A80831C8A8093102
:10422000C9A80A31CAA80B31CBA80C31CCA80D31D2
:10423000CDA80E31CEA80F31CFA81031D0A81131A2
:10424000D1A81231D2A81331D3A81431D4A8153172
:10425000D5A81631D6A81731D7A81831D8A8193142
:10426000D9A81A31DAA81B31DBA81C31DCA81D3112
:10427000DDA81E31DEA81F31DFA82031E0A82131E2
:10428000E1A82231E2A82331E3A82431E4A82531B2
:10429000E5A82631E6A82731E7A82831E8A8293182
:1042A000E9A82032E5A22132E6A22232E7A2233297
:1042B000E8A22432E9A22532EAA22632EBA2273272
:1042C000ECA22832EDA22932EEA231325AA9A33251
:1042D00049A98E334AA98F334BA99C334CA99D33EE
:1042E0004DA99E334EA9A1334FA9C43350A9CE3353
:1042F00051A9D13352A9D23353A9D53354A9004E71
:10430000BBD2014EA1B6024E4081034EDFC6044E21
:104310004181054E4281064E4381074EF2CD084E43
:10432000C9D5094EFDC80A4ECFC90B4EC2CF0C4E9F
:10433000A2D80D4EBBB20E4EEBD30F4E4481104EA1
:10434000A4D8114EF3B3124E4581134EA8D7144E84
:10435000D2C7154EA7D8164EC0CA174E4681184E62
:10436000F0C7194EFBB11A4EB5D21B4ED4B41C4E39
:10437000ABB61D4EBFCB1E4EA9D81F4E4781204E57
:104380004881214E4981224EAAB6234E4A81244EAD
:10439000BDC1254ECFD1264E4B81274EA5C9284EF3
:1043A000ADD8294E4C812A4EF6B82B4EBED12C4E9C
:1043B000DCE32D4ED0D62E4E4D812F4E4E81304E09
:1043C000E1B7314E4F81324EAEB4334E5081344E50
:1043D000D9C1354E5181364EBCD8374E5281384EF8
:1043E000E8CD394EA4B53A4EAACE3B4EF7D63C4E58
:1043F00053813D4EF6C03E4ED9BE3F4EAFD8404EE3
:104400005481414E5581424E5681434ECBC4444E59
:104410005781454EC3BE464E5881474EB1D8484E8F
:10442000B4C3494EE5D24A4E59814B4EAED64C4E9E
:10443000DACE4D4EA7D54E4EF5BA4F4EA6B7504EDA
:10444000D6C0514E5A81524EB9C6534ED2C5544E63
:10445000C7C7554E5B81564ED4B9574E5C81584EF6
:10446000CBB3594ED2D25A4E5D815B4E5E815C4ECB
:10447000BFD85D4EC5BE5E4EF2C65F4EB2D2604E34
:10448000B0CF614EE7CF624E5F81634E6081644E74
:104490006181654E6281664EE9CA674E6381684EEE
:1044A0006481694EC0D86A4E65816B4E66816C4EE0
:1044B00067816D4E68816E4E69816F4E6A81704E64
:1044C000F2C2714ED2C2724E6B81734EE9C8744E05
:1044D0006C81754E6D81764E6E81774E6F81784E10
:1044E0007081794E71817A4E72817B4E73817C4EE0
:1044F00074817D4E75817E4EACC77F4E7681804E35
:104500007781814E7881824E7981834E7A81844E83
:104510007B81854E7C81864ECBC1874E7D81884EC6
:10452000E8D3894EF9D58A4E7E818B4EC2CA8C4E15
:10453000FEB68D4EA1D88E4EDAD38F4EF7BF904E79
:104540008081914EC6D4924EA5BB934EC1D8944E55
:10455000E5CE954EAEBE964E8181974E8281984EA5
:10456000A8D8994E83819A4EC7D19B4EA9D09C4E14
:1045700084819D4E85819E4E86819F4EBDD8A04EE2
:10458000EFD9A14EF6CDA24EBABFA34E8781A44E5D
:10459000BBBDA54EA5BAA64EE0D2A74EFAB2A84E14
:1045A000E0BAA94EB6C4AA4E8881AB4EEDCFAC4E50
:1045B000A9BEAD4EA4CDAE4EC1C1AF4E8981B04EA5
:1045C0008A81B14E8B81B24ED7C7B34EF1D9B44E6A
:1045D0008C81B54EF4D9B64E8D81B74E8E81B84ED2
:1045E0008F81B94E9081BA4ECBC8BB4EE9D8BC4E34
:1045F0009181BD4E9281BE4E9381BF4EDAD2C04EA4
:10460000B2CAC14ECAC8C24EECD8C34EEAD8C44ED4
:10461000C6D8C54EF6BDC64ECDC6C74EF0B3C84EC1
:104620009481C94EEBD8CA4EF1BDCB4EE9BDCC4EFC
:104630009581CD4ED4C8CE4ED3B4CF4E9681D04EB8
:104640009781D14ED8C2D24E9881D34ED6B2D44E95
:10465000D0D7D54ECBCAD64EFBCBD74ECCD5D84E25
:10466000B6B8D94EC9CFDA4E9981DB4E9A81DC4E6D
:104670009B81DD4EDAD9DE4EF0D8DF4EAAC7E04E80
:104680009C81E14EEED8E24E9D81E34EFAB4E44EB9
:10469000EEC1E54ED4D2E64E9E81E74E9F81E84EB4
:1046A000EDD8E94EA081EA4EC7D2EB4EEFD8EC4EE2
:1046B000C7C3ED4EA181EE4EA281EF4EA381F04E15
:1046C000F6D1F14EA481F24ED9D6F34EF2D8F44E83
:1046D000A581F54EF5D8F64EFEBCF74EDBBCF84E84
:1046E000A681F94EA781FA4EA881FB4ECEC8FC4E9A
:1046F000A981FD4EDDB7FE4EAA81FF4EC2B7004F25
:10470000AB81014FF3C6024FAC81034FAD81044F23
:10471000AE81054FAF81064FB081074FB181084F81
:10472000B281094FF8D80A4FC1D20B4FB3810C4F59
:10473000B4810D4FE9CE0E4FBFBC0F4FFCB7104FE9
:10474000A5B7114FDDD0124FB581134FB681144F6D
:10475000B781154FB881164FB981174FDAD6184F68
:10476000C5D3194FEFBB1A4FE1BB1B4FF1D81C4FFC
:10477000BA811D4FBB811E4FA1C91F4FB0CE204F24
:10478000ABB4214FBC81224FF3D8234FBD81244FBE
:10479000CBC9254FF6D8264FD7C2274FF7D8284F79
:1047A000BE81294FBF812A4FB1CE2B4FF9D82C4F54
:1047B000C0812D4FC1812E4FC2812F4FAEB2304FDD
:1047C000C0B9314FC381324FA3D9334FC481344F65
:1047D000E9B0354FC581364FE6C1374FC681384FF6
:1047E000ECC9394FC7813A4FC5CB3B4FC8813C4FCD
:1047F000C6CB3D4FA4D93E4FC9813F4FCA81404FE0
:10480000CB81414FCC81424FCD81434FE8B5444FDE
:10481000CE81454FCF81464FABB5474FD081484FF2
:10482000D181494FD2814A4FD3814B4FD4814C4FD4
:10483000D5814D4FBBCE4E4FCDB54F4FA1D7504F29
:10484000F4D7514FD3D3524FD681534FE5CC544F69
:10485000D781554FCEBA564FD881574FA2D9584F0E
:10486000DCD9594FE0D35A4FFDD85B4FF0B75C4FBE
:10487000F7D75D4FFED85E4FFAD85F4FA1D9604F92
:10488000E3C4614FD981624FDA81634FB6D3644F7D
:10489000F4D8654FDDD9664FDB81674FFBD8684F91
:1048A000DC81694FE5C56A4FDD816B4FDE816C4F5E
:1048B000D0C06D4FDF816E4FE0816F4FF0D1704FF0
:1048C000DBB0714FE181724FE281734FD1BC744F05
:1048D000A6D9754FE381764FA5D9774FE481784FFC
:1048E000E581794FE6817A4FE7817B4FACD97C4FE8
:1048F000AED97D4FE8817E4FABD97F4FB9CA804F8B
:10490000E981814FEA81824FEB81834FA9D9844F9E
:10491000B6D6854FEC81864FED81874FEE81884F6B
:10492000DEB3894FA8D98A4FEF818B4FFDC08C4FE2
:10493000F0818D4FCCCA8E4FF1818F4FAAD9904F05
:10494000F281914FA7D9924FF381934FF481944F05
:10495000B0D9954FF581964FF681974FB1B6984FE4
:10496000F781994FF8819A4FF9819B4FA9B99C4FD4
:10497000FA819D4FC0D29E4FFB819F4FFC81A04F7B
:10498000C0CFA14FFD81A24FFE81A34FC2C2A44F51
:104990004082A54FC4BDA64FECD5A74FE0B2A84FAB
:1049A000C8C7A94FEBBFAA4FADD9AB4F4182AC4F9F
:1049B000AFD9AD4F4282AE4FEACEAF4FEEBAB04F55
:1049C0004382B14F4482B24F4582B34F4682B44FC7
:1049D0004782B54FD6C7B64F4882B74F4982B84FC6
:1049E0004A82B94F4B82BA4F4C82BB4F4D82BC4F6B
:1049F0004E82BD4F4F82BE4F5082BF4FE3B1C04F7A
:104A00005182C14F5282C24F5382C34FD9B4C44F57
:104A1000EDB6C54FB4D9C64F5482C74F5582C84F63
:104A20005682C94F5782CA4FA1BFCB4F5882CC4F35
:104A30005982CD4F5A82CE4FDED9CF4FCEC7D04FFD
:104A4000FEC0D14FB8D9D24F5B82D34F5C82D44FD6
:104A50005D82D54F5E82D64F5F82D74FD7CBD84F7E
:104A6000FDB7D94F6082DA4FB5D9DB4F6182DC4F99
:104A7000B7D9DD4FA3B1DE4FE1D3DF4FB9D9E04F56
:104A80006282E14FC5D0E24F6382E34FB6D9E44F73
:104A90006482E54F6582E64FB1D9E74F6682E84F01
:104AA000B2D9E94FA9C1EA4FB3D9EB4F6782EC4FB6
:104AB0006882ED4FF3BCEE4FDED0EF4FA9B8F04F58
:104AC0006982F14FE3BEF24F6A82F34FBDD9F44FD2
:104AD0006B82F54F6C82F64F6D82F74F6E82F84F06
:104AE000BAD9F94F6F82FA4FB3B0FB4F7082FC4FC7
:104AF0007182FD4F7282FE4FC2D9FF4F7382005008
:104B0000748201507582025076820350778204507D
:104B100078820550798206507A8207507B8208504D
:104B20007C8209507D820A507E820B5080820C501C
:104B3000C4D90D50B6B10E5081820F50BFD910505C
:104B40008282115083821250B9B51350848214505E
:104B5000F3BE1550858216508682175087821850F2
:104B6000C8CC1950F2BA1A50D0D21B5088821C50AF
:104B7000C3D91D5089821E508A821F50E8BD205023
:104B80008B822150ABB322508C8223508D822450D3
:104B90008E822550C5D92650EBBE27508F822850D3
:104BA000C6D92950BBD92A50DFC42B5090822C5033
:104BB000BED92D50C1D92E50C0D92F50918230501E
:104BC0009282315093823250948233509582345085
:104BD0009682355097823650988237509982385055
:104BE0009A8239509B823A50AED53B509C823C50C1
:104BF000B5D63D509D823E50E3C73F509E82405007
:104C00009F824150A0824250A1824350C8D9445053
:104C1000A2824550A3824650A4824750D9BC485036
:104C2000CAD94950A5824A50A6824B50A7824C50FF
:104C3000BCD94D50A8824E50CBD94F50ABC6505026
:104C4000A9825150AA825250AB825350AC82545028
:104C5000AD825550C9D95650AE825750AF82585088
:104C6000B0825950B1825A50F6D75B50B2825C5034
:104C7000A3CD5D50B3825E50B4825F50B582605068
:104C8000B6826150B7826250B8826350B982645074
:104C9000BA826550A1BD6650BB826750BC82685025
:104CA000BD826950BE826A50BF826B50C0826C5018
:104CB000CCD96D50C1826E50C2826F50C382705089
:104CC000C4827150C5827250C6827350C7827450BC
:104CD000C8827550C9827650BCC57750B5CD785022
:104CE000CA827950CB827A50CC827B50CDD97C500D
:104CF000CD827D50CE827E50C7D97F50A5B38050E3
:104D0000FEBF8150CF828250D0828350D1828450A6
:104D1000D2828550B5B88650D3828750D4828850CD
:104D2000FCC08950D5828A50D6828B50D7828C5055
:104D3000D8828D50F8B08E50D9828F50DA82905040
:104D4000DB829150DC829250DD829350DE8294505F
:104D5000DF829550E0829650E1829750E28298502F
:104D6000E3829950E4829A50E5829B50E6829C50FF
:104D7000E7829D50E8829E50E9829F50EA82A050CF
:104D8000EB82A150EC82A250ED82A350F6B4A45065
:104D9000EE82A550CED9A650EF82A750CFD9A85009
:104DA000A2B4A950D0D9AA50F082AB50F182AC5035
:104DB000DFB4AD50F282AE50F382AF50F482B05007
:104DC000F582B150F682B250C1B0B350F782B45000
:104DD000F882B550F982B650FA82B750FB82B850CB
:104DE000FC82B950FD82BA50D1D9BB50B5C9BC5074
:104DF000FE82BD504083BE504183BF504283C050AD
:104E00004383C1504483C2504583C3504683C4503A
:104E10004783C5504883C6504983C7504A83C8500A
:104E20004B83C9504C83CA504D83CB504E83CC50DA
:104E30004F83CD505083CE505183CF50F1CFD050BF
:104E40005283D1505383D2505483D3505583D4507E
:104E50005683D5505783D650D2D9D7505883D8507F
:104E60005983D9505A83DA50C5C1DB505B83DC507B
:104E70005C83DD505D83DE505E83DF505F83E050F6
:104E80006083E1506183E2506283E3506383E450C6
:104E90006483E5506583E650D6D9E750AEC9E85043
:104EA0006683E9506783EA506883EB506983EC506E
:104EB000D5D9ED50D4D9EE50D7D9EF506A83F05000
:104EC0006B83F1506C83F2506D83F350DBCBF45065
:104ED0006E83F550A9BDF6506F83F7507083F8507C
:104EE0007183F9507283FA507383FB50A7C6FC504C
:104EF0007483FD507583FE507683FF507783005195
:104F000078830151798302517A8303517B83045161
:104F10007C8305517D830651D3D90751D8D90851D7
:104F20007E83095180830A5181830B51D9D90C5159
:104F300082830D5183830E5184830F5185831051D9
:104F40008683115187831251E5C813518883145108
:104F5000898315518A8316518B8317518C8318517D
:104F60008D8319518E831A518F831B5190831C514D
:104F700091831D5192831E5193831F51948320511D
:104F800095832151DCC0225196832351978324516C
:104F900098832551998326519A8327519B832851C1
:104FA0009C8329519D832A519E832B519F832C5191
:104FB000A0832D51A1832E51A2832F51A383305161
:104FC000A4833151A5833251A6833351A783345131
:104FD000A8833551A9833651AA833751AB83385101
:104FE000AC833951AD833A51AE833B51AF833C51D1
:104FF000B0833D51B1833E51B2833F51F9B6405128
:10500000A3D84151CAD44251B3834351AAD4445185
:10501000D6D04551E4B34651D7D54751B483485112
:10502000C8CF4951E2B94A51B5834B51CBBF4C511E
:10503000B6834D51E2C34E51B7834F51B88350519F
:10504000B9835151D2B65251BA835351BB83545193
:10505000C3CD5551EED95651F0D95751BC83585153
:10506000BD835951BE835A51B3B55B51BF835C5167
:10507000B5B65D51C0835E51C1835F51C28360513B
:10508000C3836151C4836251A4BE6351C58364511B
:10509000C6836551EBC86651C7836751C8836851A1
:1050A000ABC86951C9836A51CA836B51CBB06C518B
:1050B000ABB96D51F9C16E51E2D96F51CB837051CB
:1050C000BCC07151B2B97251CC837351D8B974510B
:1050D000CBD07551F8B17651E4C67751DFBE785127
:1050E000E4B57951C8D77A51CD837B51F8D17C5141
:1050F000E6BC7D51DECA7E51CE837F51CF83805185
:10510000BDBC8151E6D98251E7D88351D083845107
:10511000D1838551DAC48651D2838751D383885194
:10512000D4B88951BDC88A51D4838B51D5838C5151
:10513000E1B28D51D9D48E51D6838F51D7839051FE
:10514000D8839151D9839251B0C39351DA8394514A
:10515000DB839551E1C39651A2DA9751DFC898518C
:10516000DC839951B4D09A51DD839B51FCBE9C5194
:10517000A9C59D51DE839E51DF839F51E083A051DD
:10518000DAB9A151E183A251A3DAA351E283A45178
:10519000A9D4A551A4DAA651E383A751E483A85169
:1051A000E583A951E683AA51E783AB51FBD9AC5102
:1051B000ACB6AD51E883AE51E983AF51EBB7B05116
:1051C000F9B1B151FCD9B251E5B3B351F6BEB45106
:1051D000EA83B551F6BFB651B1D2B751E4C0B85168
:1051E000EB83B951EC83BA51ED83BB51B3B6BC51DB
:1051F000FED9BD51FDD9BE51EE83BF51EF83C051E1
:10520000BBBEC151F083C251F183C351F283C4517B
:10521000E0C6C551F383C651BCD7C751A1DAC85106
:10522000F483C951B9C1CA51F583CB51F2B5CC5100
:10523000E8C1CD51F683CE51F783CF51F5BCD051A3
:10524000F883D151D5B4D251F983D351FA83D451D3
:10525000FB83D551FC83D651FD83D751FE83D851B2
:105260004084D9514184DA514284DB51DDC1DC51A3
:105270004384DD51FDC4DE514484DF514584E05157
:10528000B8BCE151B2B7E2514684E3514784E451DE
:10529000EFB7E5514884E6514984E7514A84E85123
:1052A0004B84E9514C84EA514D84EB51ECD9EC51DB
:1052B0004E84ED51BEC6EE514F84EF51ADBFF0515B
:1052C000CBBBF1515084F2515184F351CAB5F45122
:1052D0005284F551C9DBF651D7D0F7515384F851B8
:1052E000B9CDF951BCB0FA51F6B3FB51F7BBFC5143
:1052F000CADBFD51AFBAFE515484FF51E4D40052D1
:10530000B6B50152F3B50252D6D80352D0C80452F2
:105310005584055256840652D6B70752D0C7085254
:10532000D7D8095257840A52AFBF0B5258840C5237
:1053300059840D52BBDB0E52D8D80F525A841052EA
:105340005B841152CCD01252AEBB13525C84145207
:105350005D8415525E841652BEEB1752D0C11852AE
:10536000F5C11952F2D41A52D5B81B52B4B41C521A
:105370005F841D52F5B31E5260841F526184205217
:10538000BEC921526284225263842352648424520F
:10539000D0C52552658426526684275267842852D8
:1053A000D9C52952FBC02A5268842B52F0B12C5225
:1053B00069842D52D9D82E52CEB92F526A843052D8
:1053C000BDB531526B8432526C843352DAD83452C8
:1053D0006D8435526E843652C6D63752A2CB3852BF
:1053E000AFC83952B2C93A52CCB43B52CCBF3C528E
:1053F0006F843D52F4B93E5270843F52DBD8405224
:10540000DCD84152E7B64252C1BC4352EACC4452C6
:105410007184455272844652738447527484485250
:105420007584495276844A52F7CF4B5277844C5256
:10543000DDD84D52B0C74E5278844F5279845052C5
:10544000D0B95152A3BD52527A8453527B845452E4
:10545000DECC55527C845652CAC657527D8458526F
:105460007E84595280845A5281845B5282845C5279
:10547000E0D85D5283845E52DED85F5284846052ED
:1054800085846152DFD86252868463528784645275
:1054900088846552FEB0665289846752E7BE6852BE
:1054A0008A846952A3CA6A52F4BC6B528B846C52D0
:1054B0008C846D528D846E528E846F52B1B870524E
:1054C0008F84715290847252EEB8735291847452E8
:1054D000928475529384765294847752958478524C
:1054E0009684795297847A5298847B5299847C521C
:1054F0009A847D52E2D87E529B847F52CBBD8052EB
:105500009C848152E4D88252E3D883529D84845291
:105510009E8485529F848652A0848752A18488529B
:10552000FCC58952A2848A52A3848B52A4848C52D3
:10553000A5848D52A6848E52A7848F52A88490523F
:10554000E5D89152A9849252AA849352E6D89452F3
:10555000AB849552AC849652AD849752AE849852E7
:10556000AF849952B0849A52B1849B52A6C19C5286
:10557000B2849D52B0C89E52ECB09F52A6B9A052C0
:10558000D3BCA152F1CEA252BDDBA352D3C1A452CF
:10559000B384A552B484A652B584A752B684A85247
:1055A000AFB6A952FAD6AA52ACC5AB52D9BDAC52CD
:1055B000BEDBAD52BFDBAE52B784AF52B884B0523F
:1055C000B984B152F8C0B252A2BEB352CDC0B452E7
:1055D000BA84B552BB84B652BC84B752BD84B852AB
:1055E000BE84B952BF84BA52C084BB52C184BC527B
:1055F000C284BD52C384BE52C0DBBF52C6CAC052B1
:10560000C484C152C584C252C684C352AAB2C45211
:10561000C784C552C884C652C984C752C2D3C852AF
:10562000CA84C952E3C3CA52CB84CB52ABD1CC5249
:10563000CC84CD52CD84CE52CE84CF52CF84D052A2
:10564000C2DBD152D084D252D5C0D352D184D452ED
:10565000D284D552D384D652C3DBD752D484D85205
:10566000B1BFD952D584DA52D684DB52D784DC520A
:10567000D884DD52D984DE52DA84DF52BCC4E052D1
:10568000DB84E152DC84E252DD84E352DE84E452C6
:10569000DAC7E552DF84E652E084E752E184E8525B
:1056A000E284E952E384EA52E484EB52E584EC526A
:1056B000E684ED52E784EE52E884EF52E984F0523A
:1056C000C4DBF152EA84F252EB84F352EC84F452DC
:1056D000ED84F552EE84F652EF84F752F084F852DE
:1056E000F184F952E8D9FA52D7C9FB52F284FC523C
:1056F000F384FD52F484FE52B4B9FF52F0CE00534D
:10570000C8D40153F5840253F6840353F784045339
:10571000F8840553FCB00653D2B40753F9840853F8
:10572000D9D00953FA840A53FB840B53FC840C53DD
:10573000FD840D53E9D90E53FE840F53CBDE105375
:10574000EBD91153408512534185135342851453AD
:1057500043851553B0D81653AFBB1753B1B1185387
:1057600044851953D7B31A53CED81B5345851C53C0
:1057700046851D53D1D41E5347851F53488520535A
:10578000B3BD2153EFBF225349852353BBCF2453CD
:105790004A8525534B852653D0D827534C8528530B
:1057A0004D8529534E852A53CBB72B534F852C5308
:1057B00050852D5351852E53D1D82F5352853053B8
:1057C000538531535485325355853353568534535D
:1057D0005785355358853653598537535A8538532D
:1057E0005B853953A5C63A53F8C73B53BDD23C53EA
:1057F0005C853D535D853E53D2D83F53E4C440534E
:105800005E854153AECA42535F854353A7C7445395
:1058100060854553A6D8465361854753FDC9485313
:10582000E7CE4953DCBB4A53EBB04B5362854C5334
:1058300063854D5364854E53AABB4F53ADD050532F
:1058400065855153B0B15253E4D75353BFD7545326
:1058500066855553A5B55653F4C25753CFC4585314
:105860006785595368855A53A9B25B5369855C5360
:10587000B7B25D536A855E53E5B15F53B2DF6053E3
:10588000BCD56153A8BF6253ACC26353D5D864532F
:10589000B1C265536B856653D4D86753D4CE685371
:1058A0006C856953E0DA6A536D856B53C0CE6C53D7
:1058B0006E856D536F856E53B4D86F53AEC37053FE
:1058C000A1D37153A3CE725370857353B4BC745378
:1058D000B4C87553D1C2765371857753EDBE7853F2
:1058E000B6D0795372857A53E1DA7B5373857C5352
:1058F00074857D5375857E5376857F53E4C78053C9
:105900007785815378858253A7B3835379858453F0
:10591000F2B68553FCCC8653FAC087537A858853F8
:105920007B858953F7C08A537C858B53B9D18C53BF
:10593000E1D18D53C7D88E537D858F537E8590538B
:1059400080859153818592538285935383859453A7
:1059500084859553DEB296538585975386859853F3
:10596000E5C0995387859A53F1BA9B5388859C5318
:1059700089859D53C8D89E538A859F53ADD4A05323
:105980008B85A1538C85A253E1CFA353C9D8A453CF
:105990008D85A553CAD8A653C3CFA7538E85A853C8
:1059A000F8B3A953C7BEAA538F85AB539085AC53A8
:1059B0009185AD539285AE53CBD8AF539385B053F9
:1059C0009485B1539585B2539685B3539785B45357
:1059D0009885B5539985B653CCDBB7539A85B853A0
:1059E0009B85B9539C85BA539D85BB53A5C8BC53B1
:1059F0009E85BD539F85BE53A085BF53D8CFC0534E
:105A0000A185C153FEC8C253CEB2C353A285C453AD
:105A1000A385C553A485C653A585C753A685C8537A
:105A2000D6D3C953E6B2CA53B0BCCB53D1D3CC53AF
:105A3000ABCBCD53B4B7CE53A785CF53A885D053A6
:105A4000A985D153A2B7D253AA85D353AB85D453DA
:105A5000E5CAD553AC85D653A1C8D753DCCAD853B1
:105A6000E4B1D953F0D0DA53AD85DB53D1C5DC5363
:105A7000AE85DD53AF85DE53B085DF53C5DBE05324
:105A8000FEB5E153B185E253B285E353DABFE45387
:105A9000C5B9E553E4BEE653EDC1E753B385E8531A
:105AA000B6DFE953B5DFEA53BBD6EB53D0BDEC53B9
:105AB000D9D5ED53C8B0EE53A3B6EF53C9BFF053D9
:105AC000A8CCF153B3DFF253B7CAF353D2D3F45394
:105AD000B485F553CFD8F653B6D2F753C5BAF853B9
